{
  "transactions": [
    {
      "hash": "0x034d74b25686768f71fbadab74edfab3f4f616c85eeae19f6cbcd48671ceab8e",
      "transactionType": "CALL",
      "contractName": null,
      "contractAddress": "0x5d14806127d7caafcb8028c7736ae6b8aec583d9",
      "function": "fill(bytes32,(bytes32,bytes32,uint256,bytes32,uint256,bytes32,bytes,bytes),bytes32)",
      "arguments": [
        "0xb9320ada96a42b9cf3ca1ee91961f14961831861a08fcdd072d31299439771d6",
        "(0x0000000000000000000000007bc921c858c5390d9fd74c337dd009ec9a1b6b8f, 0x0000000000000000000000005d14806127d7caafcb8028c7736ae6b8aec583d9, 11155111, 0x0000000000000000000000001c7d4b196cb0c7b01d743fbc6116a902379c7238, 500000, 0x00000000000000000000000054ed3de39c8254f4d92c68c4b52ad8071089f418, 0x, 0x)",
        "0x0000000000000000000000007111c16d9e779f4bc04e28e988ba81fb2204b7d0"
      ],
      "transaction": {
        "from": "0x7111c16d9e779f4bc04e28e988ba81fb2204b7d0",
        "to": "0x5d14806127d7caafcb8028c7736ae6b8aec583d9",
        "gas": "0x2588c",
        "value": "0x0",
        "input": "0x991421f3b9320ada96a42b9cf3ca1ee91961f14961831861a08fcdd072d31299439771d600000000000000000000000000000000000000000000000000000000000000600000000000000000000000007111c16d9e779f4bc04e28e988ba81fb2204b7d00000000000000000000000007bc921c858c5390d9fd74c337dd009ec9a1b6b8f0000000000000000000000005d14806127d7caafcb8028c7736ae6b8aec583d90000000000000000000000000000000000000000000000000000000000aa36a70000000000000000000000001c7d4b196cb0c7b01d743fbc6116a902379c7238000000000000000000000000000000000000000000000000000000000007a12000000000000000000000000054ed3de39c8254f4d92c68c4b52ad8071089f4180000000000000000000000000000000000000000000000000000000000000100000000000000000000000000000000000000000000000000000000000000012000000000000000000000000000000000000000000000000000000000000000000000000000000000000000000000000000000000000000000000000000000000",
        "nonce": "0x8",
        "chainId": "0xaa36a7"
      },
      "additionalContracts": [],
      "isFixedGasLimit": false
    }
  ],
  "receipts": [
    {
      "status": "0x1",
      "cumulativeGasUsed": "0xe5a90b",
      "logs": [
        {
          "address": "0x1c7d4b196cb0c7b01d743fbc6116a902379c7238",
          "topics": [
            "0xddf252ad1be2c89b69c2b068fc378daa952ba7f163c4a11628f55a4df523b3ef",
            "0x0000000000000000000000007111c16d9e779f4bc04e28e988ba81fb2204b7d0",
            "0x00000000000000000000000054ed3de39c8254f4d92c68c4b52ad8071089f418"
          ],
          "data": "0x000000000000000000000000000000000000000000000000000000000007a120",
          "blockHash": "0x33ab2d379e0c2b50f8da69b3ad0a97ede018a762b402abc5a7ee9e7ece78f836",
          "blockNumber": "0x7c965b",
          "blockTimestamp": "0x68061fc0",
          "transactionHash": "0x034d74b25686768f71fbadab74edfab3f4f616c85eeae19f6cbcd48671ceab8e",
          "transactionIndex": "0x6c",
          "logIndex": "0xa8",
          "removed": false
        },
        {
          "address": "0x5d14806127d7caafcb8028c7736ae6b8aec583d9",
          "topics": [
            "0xff619b01773078aaa421fae49c8eaa3cddf8151aab2b9c8ff18eff4b7f937a59"
          ],
          "data": "0xb9320ada96a42b9cf3ca1ee91961f14961831861a08fcdd072d31299439771d60000000000000000000000007111c16d9e779f4bc04e28e988ba81fb2204b7d00000000000000000000000000000000000000000000000000000000068061fc000000000000000000000000000000000000000000000000000000000000000800000000000000000000000007bc921c858c5390d9fd74c337dd009ec9a1b6b8f0000000000000000000000005d14806127d7caafcb8028c7736ae6b8aec583d90000000000000000000000000000000000000000000000000000000000aa36a70000000000000000000000001c7d4b196cb0c7b01d743fbc6116a902379c7238000000000000000000000000000000000000000000000000000000000007a12000000000000000000000000054ed3de39c8254f4d92c68c4b52ad8071089f4180000000000000000000000000000000000000000000000000000000000000100000000000000000000000000000000000000000000000000000000000000012000000000000000000000000000000000000000000000000000000000000000000000000000000000000000000000000000000000000000000000000000000000",
          "blockHash": "0x33ab2d379e0c2b50f8da69b3ad0a97ede018a762b402abc5a7ee9e7ece78f836",
          "blockNumber": "0x7c965b",
          "blockTimestamp": "0x68061fc0",
          "transactionHash": "0x034d74b25686768f71fbadab74edfab3f4f616c85eeae19f6cbcd48671ceab8e",
          "transactionIndex": "0x6c",
          "logIndex": "0xa9",
          "removed": false
        }
      ],
      "logsBloom": "0x00000000000001000000000000000000000000000000000000000000000200000000000000000000000000000000000000000000000000000000000000000000000200000000000000000008000004000000002000000000000000000000000000000200000000000000000000000000000000000000000000000010000000000100000000100002000000000000000000000040000000000000000000000000020000000000002000000000000000000000000000008000000000000000000000000002000000000000000000000000000000000000000000000000000000000000000000000000000010000000000000000000010000000000000000000000",
      "type": "0x2",
      "transactionHash": "0x034d74b25686768f71fbadab74edfab3f4f616c85eeae19f6cbcd48671ceab8e",
      "transactionIndex": "0x6c",
      "blockHash": "0x33ab2d379e0c2b50f8da69b3ad0a97ede018a762b402abc5a7ee9e7ece78f836",
      "blockNumber": "0x7c965b",
      "gasUsed": "0x19aa2",
      "effectiveGasPrice": "0xf3312fe3",
      "from": "0x7111c16d9e779f4bc04e28e988ba81fb2204b7d0",
      "to": "0x5d14806127d7caafcb8028c7736ae6b8aec583d9",
      "contractAddress": null
    }
  ],
  "libraries": [],
  "pending": [],
  "returns": {},
  "timestamp": 1745231809,
  "chain": 11155111,
  "commit": "417ffd2"
}