{
  "transactions": [
    {
      "hash": "0xba4126c3ccda3e61d4349fc30b546609a3ea4df396ce75a1d0712fb57d6ae706",
      "transactionType": "CALL",
      "contractName": null,
      "contractAddress": "0x1c7d4b196cb0c7b01d743fbc6116a902379c7238",
      "function": "approve(address,uint256)",
      "arguments": [
        "0x5D14806127d7CaAFcB8028C7736AE6B8AEC583d9",
        "500000"
      ],
      "transaction": {
        "from": "0x7111c16d9e779f4bc04e28e988ba81fb2204b7d0",
        "to": "0x1c7d4b196cb0c7b01d743fbc6116a902379c7238",
        "gas": "0x12b1b",
        "value": "0x0",
        "input": "0x095ea7b30000000000000000000000005d14806127d7caafcb8028c7736ae6b8aec583d9000000000000000000000000000000000000000000000000000000000007a120",
        "nonce": "0x3",
        "chainId": "0xaa36a7"
      },
      "additionalContracts": [],
      "isFixedGasLimit": false
    },
    {
      "hash": "0xac3e9f176791fe5a4f9426412d52a6210c7753d006c35ea70e2b33558384393c",
      "transactionType": "CALL",
      "contractName": null,
      "contractAddress": "0x5d14806127d7caafcb8028c7736ae6b8aec583d9",
      "function": "fill(bytes32,(bytes32,bytes32,uint256,bytes32,uint256,bytes32,bytes,bytes),bytes32)",
      "arguments": [
        "0xb9320ada96a42b9cf3ca1ee91961f14961831861a08fcdd072d31299439771d5",
        "(0x0000000000000000000000007bc921c858c5390d9fd74c337dd009ec9a1b6b8f, 0x0000000000000000000000005d14806127d7caafcb8028c7736ae6b8aec583d9, 11155111, 0x0000000000000000000000001c7d4b196cb0c7b01d743fbc6116a902379c7238, 500000, 0x00000000000000000000000054ed3de39c8254f4d92c68c4b52ad8071089f418, 0x, 0x)",
        "0x0000000000000000000000007111c16d9e779f4bc04e28e988ba81fb2204b7d0"
      ],
      "transaction": {
        "from": "0x7111c16d9e779f4bc04e28e988ba81fb2204b7d0",
        "to": "0x5d14806127d7caafcb8028c7736ae6b8aec583d9",
        "gas": "0x2588c",
        "value": "0x0",
        "input": "0x991421f3b9320ada96a42b9cf3ca1ee91961f14961831861a08fcdd072d31299439771d500000000000000000000000000000000000000000000000000000000000000600000000000000000000000007111c16d9e779f4bc04e28e988ba81fb2204b7d00000000000000000000000007bc921c858c5390d9fd74c337dd009ec9a1b6b8f0000000000000000000000005d14806127d7caafcb8028c7736ae6b8aec583d90000000000000000000000000000000000000000000000000000000000aa36a70000000000000000000000001c7d4b196cb0c7b01d743fbc6116a902379c7238000000000000000000000000000000000000000000000000000000000007a12000000000000000000000000054ed3de39c8254f4d92c68c4b52ad8071089f4180000000000000000000000000000000000000000000000000000000000000100000000000000000000000000000000000000000000000000000000000000012000000000000000000000000000000000000000000000000000000000000000000000000000000000000000000000000000000000000000000000000000000000",
        "nonce": "0x4",
        "chainId": "0xaa36a7"
      },
      "additionalContracts": [],
      "isFixedGasLimit": false
    }
  ],
  "receipts": [
    {
      "status": "0x1",
      "cumulativeGasUsed": "0xa645e7",
      "logs": [
        {
          "address": "0x1c7d4b196cb0c7b01d743fbc6116a902379c7238",
          "topics": [
            "0x8c5be1e5ebec7d5bd14f71427d1e84f3dd0314c0f7b2291e5b200ac8c7c3b925",
            "0x0000000000000000000000007111c16d9e779f4bc04e28e988ba81fb2204b7d0",
            "0x0000000000000000000000005d14806127d7caafcb8028c7736ae6b8aec583d9"
          ],
          "data": "0x000000000000000000000000000000000000000000000000000000000007a120",
          "blockHash": "0xe2eaa5de962e87948e9b40c149f022cf43e545ace3f320ba4e83377ff1a09687",
          "blockNumber": "0x7c95fb",
          "blockTimestamp": "0x68061b40",
          "transactionHash": "0xba4126c3ccda3e61d4349fc30b546609a3ea4df396ce75a1d0712fb57d6ae706",
          "transactionIndex": "0x6e",
          "logIndex": "0x9f",
          "removed": false
        }
      ],
      "logsBloom": "0x00000000000001000000000000000000000000000000000000000000000200000000000000000000000001000000000000000000000000000000000000200000000000000000000000000000000004000000000000000000000000000000000000000000000000000000000000000020000000000000000000000000000000000000000000100002000000000000000000000000000000000020000000000000020000000000000000000000000000000000000000000000000000000000000000000000000000000000000000000000000000000000000000000000000000000010000000000000000010000000000000000000000000000000000000000000",
      "type": "0x2",
      "transactionHash": "0xba4126c3ccda3e61d4349fc30b546609a3ea4df396ce75a1d0712fb57d6ae706",
      "transactionIndex": "0x6e",
      "blockHash": "0xe2eaa5de962e87948e9b40c149f022cf43e545ace3f320ba4e83377ff1a09687",
      "blockNumber": "0x7c95fb",
      "gasUsed": "0xd88d",
      "effectiveGasPrice": "0x1e9bf5007",
      "from": "0x7111c16d9e779f4bc04e28e988ba81fb2204b7d0",
      "to": "0x1c7d4b196cb0c7b01d743fbc6116a902379c7238",
      "contractAddress": null
    },
    {
      "status": "0x1",
      "cumulativeGasUsed": "0xa7e089",
      "logs": [
        {
          "address": "0x1c7d4b196cb0c7b01d743fbc6116a902379c7238",
          "topics": [
            "0xddf252ad1be2c89b69c2b068fc378daa952ba7f163c4a11628f55a4df523b3ef",
            "0x0000000000000000000000007111c16d9e779f4bc04e28e988ba81fb2204b7d0",
            "0x00000000000000000000000054ed3de39c8254f4d92c68c4b52ad8071089f418"
          ],
          "data": "0x000000000000000000000000000000000000000000000000000000000007a120",
          "blockHash": "0xe2eaa5de962e87948e9b40c149f022cf43e545ace3f320ba4e83377ff1a09687",
          "blockNumber": "0x7c95fb",
          "blockTimestamp": "0x68061b40",
          "transactionHash": "0xac3e9f176791fe5a4f9426412d52a6210c7753d006c35ea70e2b33558384393c",
          "transactionIndex": "0x6f",
          "logIndex": "0xa0",
          "removed": false
        },
        {
          "address": "0x5d14806127d7caafcb8028c7736ae6b8aec583d9",
          "topics": [
            "0xff619b01773078aaa421fae49c8eaa3cddf8151aab2b9c8ff18eff4b7f937a59"
          ],
          "data": "0xb9320ada96a42b9cf3ca1ee91961f14961831861a08fcdd072d31299439771d50000000000000000000000007111c16d9e779f4bc04e28e988ba81fb2204b7d00000000000000000000000000000000000000000000000000000000068061b4000000000000000000000000000000000000000000000000000000000000000800000000000000000000000007bc921c858c5390d9fd74c337dd009ec9a1b6b8f0000000000000000000000005d14806127d7caafcb8028c7736ae6b8aec583d90000000000000000000000000000000000000000000000000000000000aa36a70000000000000000000000001c7d4b196cb0c7b01d743fbc6116a902379c7238000000000000000000000000000000000000000000000000000000000007a12000000000000000000000000054ed3de39c8254f4d92c68c4b52ad8071089f4180000000000000000000000000000000000000000000000000000000000000100000000000000000000000000000000000000000000000000000000000000012000000000000000000000000000000000000000000000000000000000000000000000000000000000000000000000000000000000000000000000000000000000",
          "blockHash": "0xe2eaa5de962e87948e9b40c149f022cf43e545ace3f320ba4e83377ff1a09687",
          "blockNumber": "0x7c95fb",
          "blockTimestamp": "0x68061b40",
          "transactionHash": "0xac3e9f176791fe5a4f9426412d52a6210c7753d006c35ea70e2b33558384393c",
          "transactionIndex": "0x6f",
          "logIndex": "0xa1",
          "removed": false
        }
      ],
      "logsBloom": "0x00000000000001000000000000000000000000000000000000000000000200000000000000000000000000000000000000000000000000000000000000000000000200000000000000000008000004000000002000000000000000000000000000000200000000000000000000000000000000000000000000000010000000000100000000100002000000000000000000000040000000000000000000000000020000000000002000000000000000000000000000008000000000000000000000000002000000000000000000000000000000000000000000000000000000000000000000000000000010000000000000000000010000000000000000000000",
      "type": "0x2",
      "transactionHash": "0xac3e9f176791fe5a4f9426412d52a6210c7753d006c35ea70e2b33558384393c",
      "transactionIndex": "0x6f",
      "blockHash": "0xe2eaa5de962e87948e9b40c149f022cf43e545ace3f320ba4e83377ff1a09687",
      "blockNumber": "0x7c95fb",
      "gasUsed": "0x19aa2",
      "effectiveGasPrice": "0x1e9bf5007",
      "from": "0x7111c16d9e779f4bc04e28e988ba81fb2204b7d0",
      "to": "0x5d14806127d7caafcb8028c7736ae6b8aec583d9",
      "contractAddress": null
    }
  ],
  "libraries": [],
  "pending": [],
  "returns": {},
  "timestamp": 1745230656,
  "chain": 11155111,
  "commit": "417ffd2"
}