{
  "transactions": [
    {
      "hash": "0x2a25b5093ef21fc474877d8a54f6610b8b0cf4f90421299171766e967f582b4d",
      "transactionType": "CALL",
      "contractName": null,
      "contractAddress": "0x1c7d4b196cb0c7b01d743fbc6116a902379c7238",
      "function": "approve(address,uint256)",
      "arguments": [
        "0x56C438d1F007d41F345Cd0cE8B7EA92383C15884",
        "50000"
      ],
      "transaction": {
        "from": "0x54ed3de39c8254f4d92c68c4b52ad8071089f418",
        "to": "0x1c7d4b196cb0c7b01d743fbc6116a902379c7238",
        "gas": "0x13ca2",
        "value": "0x0",
        "input": "0x095ea7b300000000000000000000000056c438d1f007d41f345cd0ce8b7ea92383c15884000000000000000000000000000000000000000000000000000000000000c350",
        "nonce": "0x4",
        "chainId": "0xaa36a7"
      },
      "additionalContracts": [],
      "isFixedGasLimit": false
    },
    {
      "hash": "0x6f19bf8910bd89518e2b7fb5a005d4434d632fc9f26387c11301628ea0f91974",
      "transactionType": "CALL",
      "contractName": null,
      "contractAddress": "0x56c438d1f007d41f345cd0ce8b7ea92383c15884",
      "function": "deposit(address,address,uint8,uint8,uint256,address)",
      "arguments": [
        "0x1c7D4B196Cb0C7B01d743Fbc6116a902379C7238",
        "0x53F4cf4E63DbFcEc0b39677F62ACB2760A402635",
        "5",
        "0",
        "50000",
        "0x54ed3de39C8254F4d92C68c4b52ad8071089f418"
      ],
      "transaction": {
        "from": "0x54ed3de39c8254f4d92c68c4b52ad8071089f418",
        "to": "0x56c438d1f007d41f345cd0ce8b7ea92383c15884",
        "gas": "0x15d7c",
        "value": "0x0",
        "input": "0x671b3bd60000000000000000000000001c7d4b196cb0c7b01d743fbc6116a902379c723800000000000000000000000053f4cf4e63dbfcec0b39677f62acb2760a40263500000000000000000000000000000000000000000000000000000000000000050000000000000000000000000000000000000000000000000000000000000000000000000000000000000000000000000000000000000000000000000000c35000000000000000000000000054ed3de39c8254f4d92c68c4b52ad8071089f418",
        "nonce": "0x5",
        "chainId": "0xaa36a7"
      },
      "additionalContracts": [],
      "isFixedGasLimit": false
    }
  ],
  "receipts": [
    {
      "status": "0x1",
      "cumulativeGasUsed": "0x1800766",
      "logs": [
        {
          "address": "0x1c7d4b196cb0c7b01d743fbc6116a902379c7238",
          "topics": [
            "0x8c5be1e5ebec7d5bd14f71427d1e84f3dd0314c0f7b2291e5b200ac8c7c3b925",
            "0x00000000000000000000000054ed3de39c8254f4d92c68c4b52ad8071089f418",
            "0x00000000000000000000000056c438d1f007d41f345cd0ce8b7ea92383c15884"
          ],
          "data": "0x000000000000000000000000000000000000000000000000000000000000c350",
          "blockHash": "0x7cd487576e0de720b4726a4828af4b9158691c1dd01158bec9266c622b6856e5",
          "blockNumber": "0x7d3efd",
          "transactionHash": "0x2a25b5093ef21fc474877d8a54f6610b8b0cf4f90421299171766e967f582b4d",
          "transactionIndex": "0xcf",
          "logIndex": "0x1cd",
          "removed": false
        }
      ],
      "logsBloom": "0x00000000000000000000000000000000000000010000000000000000000200000000000000000000000000000000000000000000000000000000000000200000000200000000000000000000000000000000000000000000000000000000000000000000000000000000000000000000000000000000000000000400000000000000000000100000000000000000000000000000000000000000000000000000020000000000000000000000000000000000000000008000000000000000000000000000000000000000000000000000000000000000000000000000000000000010000000000000000010000000000000000000010000000000400000000000",
      "type": "0x2",
      "transactionHash": "0x2a25b5093ef21fc474877d8a54f6610b8b0cf4f90421299171766e967f582b4d",
      "transactionIndex": "0xcf",
      "blockHash": "0x7cd487576e0de720b4726a4828af4b9158691c1dd01158bec9266c622b6856e5",
      "blockNumber": "0x7d3efd",
      "gasUsed": "0xd881",
      "effectiveGasPrice": "0xc74a0e5",
      "from": "0x54ed3de39c8254f4d92c68c4b52ad8071089f418",
      "to": "0x1c7d4b196cb0c7b01d743fbc6116a902379c7238",
      "contractAddress": null
    },
    {
      "status": "0x1",
      "cumulativeGasUsed": "0x181046c",
      "logs": [
        {
          "address": "0x1c7d4b196cb0c7b01d743fbc6116a902379c7238",
          "topics": [
            "0xddf252ad1be2c89b69c2b068fc378daa952ba7f163c4a11628f55a4df523b3ef",
            "0x00000000000000000000000054ed3de39c8254f4d92c68c4b52ad8071089f418",
            "0x00000000000000000000000056c438d1f007d41f345cd0ce8b7ea92383c15884"
          ],
          "data": "0x000000000000000000000000000000000000000000000000000000000000c350",
          "blockHash": "0x7cd487576e0de720b4726a4828af4b9158691c1dd01158bec9266c622b6856e5",
          "blockNumber": "0x7d3efd",
          "transactionHash": "0x6f19bf8910bd89518e2b7fb5a005d4434d632fc9f26387c11301628ea0f91974",
          "transactionIndex": "0xd0",
          "logIndex": "0x1ce",
          "removed": false
        },
        {
          "address": "0x56c438d1f007d41f345cd0ce8b7ea92383c15884",
          "topics": [
            "0x1b3d7edb2e9c0b0e7c525b20aaaef0f5940d2ed71663c7d39266ecafac728859",
            "0x0000000000000000000000000000000000000000000000000000000000000000",
            "0x00000000000000000000000054ed3de39c8254f4d92c68c4b52ad8071089f418",
            "0x5039677f62acb2760a4026351c7d4b196cb0c7b01d743fbc6116a902379c7238"
          ],
          "data": "0x00000000000000000000000054ed3de39c8254f4d92c68c4b52ad8071089f418000000000000000000000000000000000000000000000000000000000000c350",
          "blockHash": "0x7cd487576e0de720b4726a4828af4b9158691c1dd01158bec9266c622b6856e5",
          "blockNumber": "0x7d3efd",
          "transactionHash": "0x6f19bf8910bd89518e2b7fb5a005d4434d632fc9f26387c11301628ea0f91974",
          "transactionIndex": "0xd0",
          "logIndex": "0x1cf",
          "removed": false
        }
      ],
      "logsBloom": "0x00000000000000000000010000000000000000010000000000010000000200000000000000000000000000000000000000000000000000000000000000000000000200010000000000000008000004000000400000000000000000000000000000000000020000000000000000000800000000000000000000000410008000000000000000100000000000000000000000000000000000000000000000000000000000000000000000000000000020000000000000008000000000000000000000000002000000000000000000000000000000000000000000000000200020000000000000000000000010000000000000000000010000000000400004000000",
      "type": "0x2",
      "transactionHash": "0x6f19bf8910bd89518e2b7fb5a005d4434d632fc9f26387c11301628ea0f91974",
      "transactionIndex": "0xd0",
      "blockHash": "0x7cd487576e0de720b4726a4828af4b9158691c1dd01158bec9266c622b6856e5",
      "blockNumber": "0x7d3efd",
      "gasUsed": "0xfd06",
      "effectiveGasPrice": "0xc74a0e5",
      "from": "0x54ed3de39c8254f4d92c68c4b52ad8071089f418",
      "to": "0x56c438d1f007d41f345cd0ce8b7ea92383c15884",
      "contractAddress": null
    }
  ],
  "libraries": [],
  "pending": [],
  "returns": {
    "id": {
      "internal_type": "uint256",
      "value": "36286452483532273188258183071240221517527066180941760754708283751300046025272"
    }
  },
  "timestamp": 1745782897,
  "chain": 11155111,
  "commit": "417ffd2"
}