{
  "transactions": [
    {
      "hash": "0xbab46c71ef26c9896762fffc786988da0a5a9ddd72fcfeea370df14c8f534a01",
      "transactionType": "CALL",
      "contractName": null,
      "contractAddress": "0x7bc921c858c5390d9fd74c337dd009ec9a1b6b8f",
      "function": "submit(address,bytes[])",
      "arguments": [
        "0x5D14806127d7CaAFcB8028C7736AE6B8AEC583d9",
        "[0x0000000000000000000000007111c16d9e779f4bc04e28e988ba81fb2204b7d0a423a6c830156261e763c86cf076e5ff5d13ee707608bc7dc69938307d69af6068062e0c0000000000000000000000001c7d4b196cb0c7b01d743fbc6116a902379c7238000000000000000000000000000000000000000000000000000000000007a12000000000000000000000000054ed3de39c8254f4d92c68c4b52ad8071089f41800000000]"
      ],
      "transaction": {
        "from": "0x7111c16d9e779f4bc04e28e988ba81fb2204b7d0",
        "to": "0x7bc921c858c5390d9fd74c337dd009ec9a1b6b8f",
        "gas": "0x1471c",
        "value": "0x0",
        "input": "0x87d64b920000000000000000000000005d14806127d7caafcb8028c7736ae6b8aec583d900000000000000000000000000000000000000000000000000000000000000400000000000000000000000000000000000000000000000000000000000000001000000000000000000000000000000000000000000000000000000000000002000000000000000000000000000000000000000000000000000000000000000a80000000000000000000000007111c16d9e779f4bc04e28e988ba81fb2204b7d0a423a6c830156261e763c86cf076e5ff5d13ee707608bc7dc69938307d69af6068062e0c0000000000000000000000001c7d4b196cb0c7b01d743fbc6116a902379c7238000000000000000000000000000000000000000000000000000000000007a12000000000000000000000000054ed3de39c8254f4d92c68c4b52ad8071089f41800000000000000000000000000000000000000000000000000000000",
        "nonce": "0x12",
        "chainId": "0xaa36a7"
      },
      "additionalContracts": [],
      "isFixedGasLimit": false
    }
  ],
  "receipts": [
    {
      "status": "0x1",
      "cumulativeGasUsed": "0x11a5cca",
      "logs": [
        {
          "address": "0x4a8bc80ed5a4067f1ccf107057b8270e0cc11a78",
          "topics": [
            "0x6eb224fb001ed210e379b335e35efe88672a8ce935d981a6896b27ffdf52a3b2",
            "0x0000000000000000000000007bc921c858c5390d9fd74c337dd009ec9a1b6b8f"
          ],
          "data": "0x000000000000000000000000000000000000000000000000000000000000000c00000000000000000000000000000000000000000000000000000000000000000000000000000000000000000000000000000000000000000000000000000080000000000000000000000000000000000000000000000000000000000000000f00000000000000000000000000000000000000000000000000000000000000cc0000000000000000000000005d14806127d7caafcb8028c7736ae6b8aec583d9000100a80000000000000000000000007111c16d9e779f4bc04e28e988ba81fb2204b7d0a423a6c830156261e763c86cf076e5ff5d13ee707608bc7dc69938307d69af6068062e0c0000000000000000000000001c7d4b196cb0c7b01d743fbc6116a902379c7238000000000000000000000000000000000000000000000000000000000007a12000000000000000000000000054ed3de39c8254f4d92c68c4b52ad8071089f418000000000000000000000000000000000000000000000000",
          "blockHash": "0x99489912d1ce04188e42d9247634ab977f4ad0dbbfca5aabd4544c609212714f",
          "blockNumber": "0x7c9792",
          "blockTimestamp": "0x68062e6c",
          "transactionHash": "0xbab46c71ef26c9896762fffc786988da0a5a9ddd72fcfeea370df14c8f534a01",
          "transactionIndex": "0x84",
          "logIndex": "0xe8",
          "removed": false
        }
      ],
      "logsBloom": "0x00000000000100000000000000000010000000000000000000000000000000000010000000000000000000000000000000000000000000000000000000000000000000000000000000000000000000000000000008000000000000000100000000000000000000000000000000000000000000000000000000000000000000000000000000000000000000000000200000000000000000000000100000000000000000000400000000000000000000000000000000000000000000000000000000000000000000000000000000000000000000000000000000000000040000000000000000000000000000000000000000000000000000000000000000000000",
      "type": "0x2",
      "transactionHash": "0xbab46c71ef26c9896762fffc786988da0a5a9ddd72fcfeea370df14c8f534a01",
      "transactionIndex": "0x84",
      "blockHash": "0x99489912d1ce04188e42d9247634ab977f4ad0dbbfca5aabd4544c609212714f",
      "blockNumber": "0x7c9792",
      "gasUsed": "0xdfab",
      "effectiveGasPrice": "0x8325720b",
      "from": "0x7111c16d9e779f4bc04e28e988ba81fb2204b7d0",
      "to": "0x7bc921c858c5390d9fd74c337dd009ec9a1b6b8f",
      "contractAddress": null
    }
  ],
  "libraries": [],
  "pending": [],
  "returns": {},
  "timestamp": 1745235564,
  "chain": 11155111,
  "commit": "417ffd2"
}