{
  "transactions": [
    {
      "hash": "0xd0e9580196fcf94f9a8cd1a178d550f55a71222d007cba8c3976c61008fba5cf",
      "transactionType": "CALL",
      "contractName": null,
      "contractAddress": "0x115513dd91e9d8a18a9b1469307d219830dc37fd",
      "function": "finaliseSelf((address,uint256,uint256,uint32,address,uint256[2][],(bytes32,bytes32,uint256,bytes32,uint256,bytes32,bytes,bytes)[]),bytes,uint32[],bytes32)",
      "arguments": [
        "(0x54ed3de39C8254F4d92C68c4b52ad8071089f418, 1, 11155111, 1746210940, 0xada1de62bE4F386346453A5b6F005BCdBE4515A1, [[36286452483532273188258183071240221517527066180941760754708283751300046025272, 50000]], [(0x594feecc63bc79bfa325a9f37555595c3615ce8af561b1954eaed72f16ccbf2e, 0x9c1ddd3992cea0ed02c01a2baf35a95db0c0841ed18be74e28fdffce1ec8331f, 2, 0x69091fbab5f7d635ee7ac5098cf0c1efbe31d68fec0f2cd565e8d168daf52832, 50000, 0x25303d0e8ae305b0a2c2bc79956b6d47d258293d5d2cb50596174c2e90ce055b, 0x, 0x)])",
        "0x000000000000000000000000000000000000000000000000000000000000004000000000000000000000000000000000000000000000000000000000000000c00000000000000000000000000000000000000000000000000000000000000041d76d64289b122202754b9f39462e6abc5efa527df08048a8d9bf9c789589042c76c41516b364b56c8e9510deba6542222af4e818129d081018a431fdd2f88ea61c000000000000000000000000000000000000000000000000000000000000000000000000000000000000000000000000000000000000000000000000000000",
        "[1745704051]",
        "0x0000000000000000000000007111c16d9e779f4bc04e28e988ba81fb2204b7d0"
      ],
      "transaction": {
        "from": "0x7111c16d9e779f4bc04e28e988ba81fb2204b7d0",
        "to": "0x115513dd91e9d8a18a9b1469307d219830dc37fd",
        "gas": "0x2e0d6",
        "value": "0x0",
        "input": "0x0059a9460000000000000000000000000000000000000000000000000000000000000080000000000000000000000000000000000000000000000000000000000000034000000000000000000000000000000000000000000000000000000000000004400000000000000000000000007111c16d9e779f4bc04e28e988ba81fb2204b7d000000000000000000000000054ed3de39c8254f4d92c68c4b52ad8071089f41800000000000000000000000000000000000000000000000000000000000000010000000000000000000000000000000000000000000000000000000000aa36a7000000000000000000000000000000000000000000000000000000006815107c000000000000000000000000ada1de62be4f386346453a5b6f005bcdbe4515a100000000000000000000000000000000000000000000000000000000000000e0000000000000000000000000000000000000000000000000000000000000014000000000000000000000000000000000000000000000000000000000000000015039677f62acb2760a4026351c7d4b196cb0c7b01d743fbc6116a902379c7238000000000000000000000000000000000000000000000000000000000000c35000000000000000000000000000000000000000000000000000000000000000010000000000000000000000000000000000000000000000000000000000000020594feecc63bc79bfa325a9f37555595c3615ce8af561b1954eaed72f16ccbf2e9c1ddd3992cea0ed02c01a2baf35a95db0c0841ed18be74e28fdffce1ec8331f000000000000000000000000000000000000000000000000000000000000000269091fbab5f7d635ee7ac5098cf0c1efbe31d68fec0f2cd565e8d168daf52832000000000000000000000000000000000000000000000000000000000000c35025303d0e8ae305b0a2c2bc79956b6d47d258293d5d2cb50596174c2e90ce055b000000000000000000000000000000000000000000000000000000000000010000000000000000000000000000000000000000000000000000000000000001200000000000000000000000000000000000000000000000000000000000000000000000000000000000000000000000000000000000000000000000000000000000000000000000000000000000000000000000000000000000000000000000e0000000000000000000000000000000000000000000000000000000000000004000000000000000000000000000000000000000000000000000000000000000c00000000000000000000000000000000000000000000000000000000000000041d76d64289b122202754b9f39462e6abc5efa527df08048a8d9bf9c789589042c76c41516b364b56c8e9510deba6542222af4e818129d081018a431fdd2f88ea61c000000000000000000000000000000000000000000000000000000000000000000000000000000000000000000000000000000000000000000000000000000000000000000000000000000000000000000000000000000000000000000000100000000000000000000000000000000000000000000000000000000680d5473",
        "nonce": "0x30",
        "chainId": "0xaa36a7"
      },
      "additionalContracts": [],
      "isFixedGasLimit": false
    }
  ],
  "receipts": [
    {
      "status": "0x1",
      "cumulativeGasUsed": "0xfb042f",
      "logs": [
        {
          "address": "0x56c438d1f007d41f345cd0ce8b7ea92383c15884",
          "topics": [
            "0x770c32a2314b700d6239ee35ba23a9690f2fceb93a55d8c753e953059b3b18d4",
            "0x00000000000000000000000054ed3de39c8254f4d92c68c4b52ad8071089f418",
            "0x00000000000000000000000053f4cf4e63dbfcec0b39677f62acb2760a402635",
            "0x000000000000000000000000115513dd91e9d8a18a9b1469307d219830dc37fd"
          ],
          "data": "0x91ef7be4c908f1efe944790333c3b9fd6a11eae7a35c096184a023db57893845",
          "blockHash": "0x234c1ef1ddfcc48b1fec2d2b90b22c99feca02962554b1596ec361179f30dc69",
          "blockNumber": "0x7d2c75",
          "transactionHash": "0xd0e9580196fcf94f9a8cd1a178d550f55a71222d007cba8c3976c61008fba5cf",
          "transactionIndex": "0x9d",
          "logIndex": "0x130",
          "removed": false
        },
        {
          "address": "0x1c7d4b196cb0c7b01d743fbc6116a902379c7238",
          "topics": [
            "0xddf252ad1be2c89b69c2b068fc378daa952ba7f163c4a11628f55a4df523b3ef",
            "0x00000000000000000000000056c438d1f007d41f345cd0ce8b7ea92383c15884",
            "0x0000000000000000000000007111c16d9e779f4bc04e28e988ba81fb2204b7d0"
          ],
          "data": "0x000000000000000000000000000000000000000000000000000000000000c350",
          "blockHash": "0x234c1ef1ddfcc48b1fec2d2b90b22c99feca02962554b1596ec361179f30dc69",
          "blockNumber": "0x7d2c75",
          "transactionHash": "0xd0e9580196fcf94f9a8cd1a178d550f55a71222d007cba8c3976c61008fba5cf",
          "transactionIndex": "0x9d",
          "logIndex": "0x131",
          "removed": false
        },
        {
          "address": "0x56c438d1f007d41f345cd0ce8b7ea92383c15884",
          "topics": [
            "0x1b3d7edb2e9c0b0e7c525b20aaaef0f5940d2ed71663c7d39266ecafac728859",
            "0x00000000000000000000000054ed3de39c8254f4d92c68c4b52ad8071089f418",
            "0x0000000000000000000000000000000000000000000000000000000000000000",
            "0x5039677f62acb2760a4026351c7d4b196cb0c7b01d743fbc6116a902379c7238"
          ],
          "data": "0x000000000000000000000000115513dd91e9d8a18a9b1469307d219830dc37fd000000000000000000000000000000000000000000000000000000000000c350",
          "blockHash": "0x234c1ef1ddfcc48b1fec2d2b90b22c99feca02962554b1596ec361179f30dc69",
          "blockNumber": "0x7d2c75",
          "transactionHash": "0xd0e9580196fcf94f9a8cd1a178d550f55a71222d007cba8c3976c61008fba5cf",
          "transactionIndex": "0x9d",
          "logIndex": "0x132",
          "removed": false
        },
        {
          "address": "0x115513dd91e9d8a18a9b1469307d219830dc37fd",
          "topics": [
            "0x16a681bc1a5ec95f106eb0fb117a24a434519482ead74286b0627b5265e40b8b",
            "0x99d6c3f67c155b30fb9c7d62c2a97f5ad22970f7047a279a91bc0f9da923de95"
          ],
          "data": "0x0000000000000000000000007111c16d9e779f4bc04e28e988ba81fb2204b7d00000000000000000000000007111c16d9e779f4bc04e28e988ba81fb2204b7d0",
          "blockHash": "0x234c1ef1ddfcc48b1fec2d2b90b22c99feca02962554b1596ec361179f30dc69",
          "blockNumber": "0x7d2c75",
          "transactionHash": "0xd0e9580196fcf94f9a8cd1a178d550f55a71222d007cba8c3976c61008fba5cf",
          "transactionIndex": "0x9d",
          "logIndex": "0x133",
          "removed": false
        }
      ],
      "logsBloom": "0x0400000000000100000001000000000000000001000000000001000000020000000000000000000000000000000000000000000000000000000000000010008000030009000000000000008800000400000040004000000000000000000000000000000002000000010000000000080000800000000000000000041000800000000000000010000200000000000000000000000000000000000000000000000000000000000000000800000000802000000000000000c00000000000000000000000000a000000000000000000000000000000000000000000000000200020000044000000000000000810000000000000000000010000000000400044000000",
      "type": "0x2",
      "transactionHash": "0xd0e9580196fcf94f9a8cd1a178d550f55a71222d007cba8c3976c61008fba5cf",
      "transactionIndex": "0x9d",
      "blockHash": "0x234c1ef1ddfcc48b1fec2d2b90b22c99feca02962554b1596ec361179f30dc69",
      "blockNumber": "0x7d2c75",
      "gasUsed": "0x1f7d2",
      "effectiveGasPrice": "0x1d6d74",
      "from": "0x7111c16d9e779f4bc04e28e988ba81fb2204b7d0",
      "to": "0x115513dd91e9d8a18a9b1469307d219830dc37fd",
      "contractAddress": null
    }
  ],
  "libraries": [],
  "pending": [],
  "returns": {},
  "timestamp": 1745721746,
  "chain": 11155111,
  "commit": "417ffd2"
}