{
  "transactions": [
    {
      "hash": "0x7c7d65376f50b1f1fd5ea6ecacba3e4cd3c613dac3216df3ca54c6757fa8bbc8",
      "transactionType": "CALL",
      "contractName": null,
      "contractAddress": "0x7bc921c858c5390d9fd74c337dd009ec9a1b6b8f",
      "function": "submit(address,bytes[])",
      "arguments": [
        "0x5D14806127d7CaAFcB8028C7736AE6B8AEC583d9",
        "[0x0000000000000000000000007111c16d9e779f4bc04e28e988ba81fb2204b7d0992a5ee6cc9168becf1f7c5a4d7ae061846f1f2e292f06f95ab4436afa0ac44968074f2c0000000000000000000000001c7d4b196cb0c7b01d743fbc6116a902379c7238000000000000000000000000000000000000000000000000000000000000c35000000000000000000000000054ed3de39c8254f4d92c68c4b52ad8071089f41800000000]"
      ],
      "transaction": {
        "from": "0x7111c16d9e779f4bc04e28e988ba81fb2204b7d0",
        "to": "0x7bc921c858c5390d9fd74c337dd009ec9a1b6b8f",
        "gas": "0x134df",
        "value": "0x0",
        "input": "0x87d64b920000000000000000000000005d14806127d7caafcb8028c7736ae6b8aec583d900000000000000000000000000000000000000000000000000000000000000400000000000000000000000000000000000000000000000000000000000000001000000000000000000000000000000000000000000000000000000000000002000000000000000000000000000000000000000000000000000000000000000a80000000000000000000000007111c16d9e779f4bc04e28e988ba81fb2204b7d0992a5ee6cc9168becf1f7c5a4d7ae061846f1f2e292f06f95ab4436afa0ac44968074f2c0000000000000000000000001c7d4b196cb0c7b01d743fbc6116a902379c7238000000000000000000000000000000000000000000000000000000000000c35000000000000000000000000054ed3de39c8254f4d92c68c4b52ad8071089f41800000000000000000000000000000000000000000000000000000000",
        "nonce": "0x1d",
        "chainId": "0xaa36a7"
      },
      "additionalContracts": [],
      "isFixedGasLimit": false
    }
  ],
  "receipts": [
    {
      "status": "0x1",
      "cumulativeGasUsed": "0x1525ba6",
      "logs": [
        {
          "address": "0x4a8bc80ed5a4067f1ccf107057b8270e0cc11a78",
          "topics": [
            "0x6eb224fb001ed210e379b335e35efe88672a8ce935d981a6896b27ffdf52a3b2",
            "0x0000000000000000000000007bc921c858c5390d9fd74c337dd009ec9a1b6b8f"
          ],
          "data": "0x000000000000000000000000000000000000000000000000000000000000000f00000000000000000000000000000000000000000000000000000000000000000000000000000000000000000000000000000000000000000000000000000080000000000000000000000000000000000000000000000000000000000000000f00000000000000000000000000000000000000000000000000000000000000cc0000000000000000000000005d14806127d7caafcb8028c7736ae6b8aec583d9000100a80000000000000000000000007111c16d9e779f4bc04e28e988ba81fb2204b7d0992a5ee6cc9168becf1f7c5a4d7ae061846f1f2e292f06f95ab4436afa0ac44968074f2c0000000000000000000000001c7d4b196cb0c7b01d743fbc6116a902379c7238000000000000000000000000000000000000000000000000000000000000c35000000000000000000000000054ed3de39c8254f4d92c68c4b52ad8071089f418000000000000000000000000000000000000000000000000",
          "blockHash": "0x9c7962dd4289d215a2203a9f07aa7301cb4325611d468432a710939371b5eb88",
          "blockNumber": "0x7cae94",
          "blockTimestamp": "0x68074f8c",
          "transactionHash": "0x7c7d65376f50b1f1fd5ea6ecacba3e4cd3c613dac3216df3ca54c6757fa8bbc8",
          "transactionIndex": "0x9b",
          "logIndex": "0x127",
          "removed": false
        }
      ],
      "logsBloom": "0x00000000000100000000000000000010000000000000000000000000000000000010000000000000000000000000000000000000000000000000000000000000000000000000000000000000000000000000000008000000000000000100000000000000000000000000000000000000000000000000000000000000000000000000000000000000000000000000200000000000000000000000100000000000000000000400000000000000000000000000000000000000000000000000000000000000000000000000000000000000000000000000000000000000040000000000000000000000000000000000000000000000000000000000000000000000",
      "type": "0x2",
      "transactionHash": "0x7c7d65376f50b1f1fd5ea6ecacba3e4cd3c613dac3216df3ca54c6757fa8bbc8",
      "transactionIndex": "0x9b",
      "blockHash": "0x9c7962dd4289d215a2203a9f07aa7301cb4325611d468432a710939371b5eb88",
      "blockNumber": "0x7cae94",
      "gasUsed": "0xdf9f",
      "effectiveGasPrice": "0x6e8dc9be8",
      "from": "0x7111c16d9e779f4bc04e28e988ba81fb2204b7d0",
      "to": "0x7bc921c858c5390d9fd74c337dd009ec9a1b6b8f",
      "contractAddress": null
    }
  ],
  "libraries": [],
  "pending": [],
  "returns": {},
  "timestamp": 1745309581,
  "chain": 11155111,
  "commit": "417ffd2"
}