{
  "transactions": [
    {
      "hash": "0x37ffbd23d297a4ce3b34447de682d4e89becaa7bb053ca2008c0f0f711802fd0",
      "transactionType": "CALL",
      "contractName": null,
      "contractAddress": "0x1c7d4b196cb0c7b01d743fbc6116a902379c7238",
      "function": "approve(address,uint256)",
      "arguments": [
        "0x5D14806127d7CaAFcB8028C7736AE6B8AEC583d9",
        "500000"
      ],
      "transaction": {
        "from": "0x7111c16d9e779f4bc04e28e988ba81fb2204b7d0",
        "to": "0x1c7d4b196cb0c7b01d743fbc6116a902379c7238",
        "gas": "0x12b1b",
        "value": "0x0",
        "input": "0x095ea7b30000000000000000000000005d14806127d7caafcb8028c7736ae6b8aec583d9000000000000000000000000000000000000000000000000000000000007a120",
        "nonce": "0xd",
        "chainId": "0xaa36a7"
      },
      "additionalContracts": [],
      "isFixedGasLimit": false
    },
    {
      "hash": "0x2b58d9c3dd09466e76c20d17aa063db3e0ed6a50eab55b8cb4748a080521aaf8",
      "transactionType": "CALL",
      "contractName": null,
      "contractAddress": "0x5d14806127d7caafcb8028c7736ae6b8aec583d9",
      "function": "fill(bytes32,(bytes32,bytes32,uint256,bytes32,uint256,bytes32,bytes,bytes),bytes32)",
      "arguments": [
        "0xb179e91aa00dba211924c68719b2a134deaf8eecb555651e7900bc108840d2b6",
        "(0x0000000000000000000000007bc921c858c5390d9fd74c337dd009ec9a1b6b8f, 0x0000000000000000000000005d14806127d7caafcb8028c7736ae6b8aec583d9, 11155111, 0x0000000000000000000000001c7d4b196cb0c7b01d743fbc6116a902379c7238, 500000, 0x00000000000000000000000054ed3de39c8254f4d92c68c4b52ad8071089f418, 0x, 0x)",
        "0x0000000000000000000000007111c16d9e779f4bc04e28e988ba81fb2204b7d0"
      ],
      "transaction": {
        "from": "0x7111c16d9e779f4bc04e28e988ba81fb2204b7d0",
        "to": "0x5d14806127d7caafcb8028c7736ae6b8aec583d9",
        "gas": "0x2371e",
        "value": "0x0",
        "input": "0x991421f3b179e91aa00dba211924c68719b2a134deaf8eecb555651e7900bc108840d2b600000000000000000000000000000000000000000000000000000000000000600000000000000000000000007111c16d9e779f4bc04e28e988ba81fb2204b7d00000000000000000000000007bc921c858c5390d9fd74c337dd009ec9a1b6b8f0000000000000000000000005d14806127d7caafcb8028c7736ae6b8aec583d90000000000000000000000000000000000000000000000000000000000aa36a70000000000000000000000001c7d4b196cb0c7b01d743fbc6116a902379c7238000000000000000000000000000000000000000000000000000000000007a12000000000000000000000000054ed3de39c8254f4d92c68c4b52ad8071089f4180000000000000000000000000000000000000000000000000000000000000100000000000000000000000000000000000000000000000000000000000000012000000000000000000000000000000000000000000000000000000000000000000000000000000000000000000000000000000000000000000000000000000000",
        "nonce": "0xe",
        "chainId": "0xaa36a7"
      },
      "additionalContracts": [],
      "isFixedGasLimit": false
    }
  ],
  "receipts": [
    {
      "status": "0x1",
      "cumulativeGasUsed": "0xc7302d",
      "logs": [
        {
          "address": "0x1c7d4b196cb0c7b01d743fbc6116a902379c7238",
          "topics": [
            "0x8c5be1e5ebec7d5bd14f71427d1e84f3dd0314c0f7b2291e5b200ac8c7c3b925",
            "0x0000000000000000000000007111c16d9e779f4bc04e28e988ba81fb2204b7d0",
            "0x0000000000000000000000005d14806127d7caafcb8028c7736ae6b8aec583d9"
          ],
          "data": "0x000000000000000000000000000000000000000000000000000000000007a120",
          "blockHash": "0x377021dffb31bff3a95b0c16ab6bfef369af73c42db552a345e671318ffc00b5",
          "blockNumber": "0x7c96f0",
          "blockTimestamp": "0x680626c8",
          "transactionHash": "0x37ffbd23d297a4ce3b34447de682d4e89becaa7bb053ca2008c0f0f711802fd0",
          "transactionIndex": "0x9e",
          "logIndex": "0xec",
          "removed": false
        }
      ],
      "logsBloom": "0x00000000000001000000000000000000000000000000000000000000000200000000000000000000000001000000000000000000000000000000000000200000000000000000000000000000000004000000000000000000000000000000000000000000000000000000000000000020000000000000000000000000000000000000000000100002000000000000000000000000000000000020000000000000020000000000000000000000000000000000000000000000000000000000000000000000000000000000000000000000000000000000000000000000000000000010000000000000000010000000000000000000000000000000000000000000",
      "type": "0x2",
      "transactionHash": "0x37ffbd23d297a4ce3b34447de682d4e89becaa7bb053ca2008c0f0f711802fd0",
      "transactionIndex": "0x9e",
      "blockHash": "0x377021dffb31bff3a95b0c16ab6bfef369af73c42db552a345e671318ffc00b5",
      "blockNumber": "0x7c96f0",
      "gasUsed": "0xd88d",
      "effectiveGasPrice": "0x9fba20cc",
      "from": "0x7111c16d9e779f4bc04e28e988ba81fb2204b7d0",
      "to": "0x1c7d4b196cb0c7b01d743fbc6116a902379c7238",
      "contractAddress": null
    },
    {
      "status": "0x1",
      "cumulativeGasUsed": "0xc8cac3",
      "logs": [
        {
          "address": "0x1c7d4b196cb0c7b01d743fbc6116a902379c7238",
          "topics": [
            "0xddf252ad1be2c89b69c2b068fc378daa952ba7f163c4a11628f55a4df523b3ef",
            "0x0000000000000000000000007111c16d9e779f4bc04e28e988ba81fb2204b7d0",
            "0x00000000000000000000000054ed3de39c8254f4d92c68c4b52ad8071089f418"
          ],
          "data": "0x000000000000000000000000000000000000000000000000000000000007a120",
          "blockHash": "0x377021dffb31bff3a95b0c16ab6bfef369af73c42db552a345e671318ffc00b5",
          "blockNumber": "0x7c96f0",
          "blockTimestamp": "0x680626c8",
          "transactionHash": "0x2b58d9c3dd09466e76c20d17aa063db3e0ed6a50eab55b8cb4748a080521aaf8",
          "transactionIndex": "0x9f",
          "logIndex": "0xed",
          "removed": false
        },
        {
          "address": "0x5d14806127d7caafcb8028c7736ae6b8aec583d9",
          "topics": [
            "0xff619b01773078aaa421fae49c8eaa3cddf8151aab2b9c8ff18eff4b7f937a59"
          ],
          "data": "0xb179e91aa00dba211924c68719b2a134deaf8eecb555651e7900bc108840d2b60000000000000000000000007111c16d9e779f4bc04e28e988ba81fb2204b7d000000000000000000000000000000000000000000000000000000000680626c800000000000000000000000000000000000000000000000000000000000000800000000000000000000000007bc921c858c5390d9fd74c337dd009ec9a1b6b8f0000000000000000000000005d14806127d7caafcb8028c7736ae6b8aec583d90000000000000000000000000000000000000000000000000000000000aa36a70000000000000000000000001c7d4b196cb0c7b01d743fbc6116a902379c7238000000000000000000000000000000000000000000000000000000000007a12000000000000000000000000054ed3de39c8254f4d92c68c4b52ad8071089f4180000000000000000000000000000000000000000000000000000000000000100000000000000000000000000000000000000000000000000000000000000012000000000000000000000000000000000000000000000000000000000000000000000000000000000000000000000000000000000000000000000000000000000",
          "blockHash": "0x377021dffb31bff3a95b0c16ab6bfef369af73c42db552a345e671318ffc00b5",
          "blockNumber": "0x7c96f0",
          "blockTimestamp": "0x680626c8",
          "transactionHash": "0x2b58d9c3dd09466e76c20d17aa063db3e0ed6a50eab55b8cb4748a080521aaf8",
          "transactionIndex": "0x9f",
          "logIndex": "0xee",
          "removed": false
        }
      ],
      "logsBloom": "0x00000000000001000000000000000000000000000000000000000000000200000000000000000000000000000000000000000000000000000000000000000000000200000000000000000008000004000000002000000000000000000000000000000200000000000000000000000000000000000000000000000010000000000100000000100002000000000000000000000040000000000000000000000000020000000000002000000000000000000000000000008000000000000000000000000002000000000000000000000000000000000000000000000000000000000000000000000000000010000000000000000000010000000000000000000000",
      "type": "0x2",
      "transactionHash": "0x2b58d9c3dd09466e76c20d17aa063db3e0ed6a50eab55b8cb4748a080521aaf8",
      "transactionIndex": "0x9f",
      "blockHash": "0x377021dffb31bff3a95b0c16ab6bfef369af73c42db552a345e671318ffc00b5",
      "blockNumber": "0x7c96f0",
      "gasUsed": "0x19a96",
      "effectiveGasPrice": "0x9fba20cc",
      "from": "0x7111c16d9e779f4bc04e28e988ba81fb2204b7d0",
      "to": "0x5d14806127d7caafcb8028c7736ae6b8aec583d9",
      "contractAddress": null
    }
  ],
  "libraries": [],
  "pending": [],
  "returns": {},
  "timestamp": 1745233608,
  "chain": 11155111,
  "commit": "417ffd2"
}