{
  "transactions": [
    {
      "hash": "0x9a144642c9b41f1e5f51a9e3ea228790d88a8b0fa28197c72637682667943a92",
      "transactionType": "CALL",
      "contractName": null,
      "contractAddress": "0x1c7d4b196cb0c7b01d743fbc6116a902379c7238",
      "function": "approve(address,uint256)",
      "arguments": [
        "0x5D14806127d7CaAFcB8028C7736AE6B8AEC583d9",
        "50000"
      ],
      "transaction": {
        "from": "0x7111c16d9e779f4bc04e28e988ba81fb2204b7d0",
        "to": "0x1c7d4b196cb0c7b01d743fbc6116a902379c7238",
        "gas": "0x13ca2",
        "value": "0x0",
        "input": "0x095ea7b30000000000000000000000005d14806127d7caafcb8028c7736ae6b8aec583d9000000000000000000000000000000000000000000000000000000000000c350",
        "nonce": "0x2d",
        "chainId": "0xaa36a7"
      },
      "additionalContracts": [],
      "isFixedGasLimit": false
    },
    {
      "hash": "0xc8d7cfb40ea1df06ce4e8bc00f5eea59ad5f25fa165d6bee588f39b9f52beb85",
      "transactionType": "CALL",
      "contractName": null,
      "contractAddress": "0x5d14806127d7caafcb8028c7736ae6b8aec583d9",
      "function": "fill(bytes32,(bytes32,bytes32,uint256,bytes32,uint256,bytes32,bytes,bytes),bytes32)",
      "arguments": [
        "0x46c02b79c5190f2d3637cd9cb7e9e16bb35ec91e687b348926bcea73ea82f218",
        "(0x0000000000000000000000007bc921c858c5390d9fd74c337dd009ec9a1b6b8f, 0x0000000000000000000000005d14806127d7caafcb8028c7736ae6b8aec583d9, 11155111, 0x0000000000000000000000001c7d4b196cb0c7b01d743fbc6116a902379c7238, 50000, 0x00000000000000000000000054ed3de39c8254f4d92c68c4b52ad8071089f418, 0x, 0x)",
        "0x25303d0e8ae305b0a2c2bc79956b6d47d258293d5d2cb50596174c2e90ce055b"
      ],
      "transaction": {
        "from": "0x7111c16d9e779f4bc04e28e988ba81fb2204b7d0",
        "to": "0x5d14806127d7caafcb8028c7736ae6b8aec583d9",
        "gas": "0x237e5",
        "value": "0x0",
        "input": "0x991421f346c02b79c5190f2d3637cd9cb7e9e16bb35ec91e687b348926bcea73ea82f218000000000000000000000000000000000000000000000000000000000000006025303d0e8ae305b0a2c2bc79956b6d47d258293d5d2cb50596174c2e90ce055b0000000000000000000000007bc921c858c5390d9fd74c337dd009ec9a1b6b8f0000000000000000000000005d14806127d7caafcb8028c7736ae6b8aec583d90000000000000000000000000000000000000000000000000000000000aa36a70000000000000000000000001c7d4b196cb0c7b01d743fbc6116a902379c7238000000000000000000000000000000000000000000000000000000000000c35000000000000000000000000054ed3de39c8254f4d92c68c4b52ad8071089f4180000000000000000000000000000000000000000000000000000000000000100000000000000000000000000000000000000000000000000000000000000012000000000000000000000000000000000000000000000000000000000000000000000000000000000000000000000000000000000000000000000000000000000",
        "nonce": "0x2e",
        "chainId": "0xaa36a7"
      },
      "additionalContracts": [],
      "isFixedGasLimit": false
    }
  ],
  "receipts": [
    {
      "status": "0x1",
      "cumulativeGasUsed": "0xdae2c2",
      "logs": [
        {
          "address": "0x1c7d4b196cb0c7b01d743fbc6116a902379c7238",
          "topics": [
            "0x8c5be1e5ebec7d5bd14f71427d1e84f3dd0314c0f7b2291e5b200ac8c7c3b925",
            "0x0000000000000000000000007111c16d9e779f4bc04e28e988ba81fb2204b7d0",
            "0x0000000000000000000000005d14806127d7caafcb8028c7736ae6b8aec583d9"
          ],
          "data": "0x000000000000000000000000000000000000000000000000000000000000c350",
          "blockHash": "0x6bfafe9fdd9c44c32f5a548713772fabb32edc97c4c5526d0a4f49e330c62278",
          "blockNumber": "0x7d1e7e",
          "blockTimestamp": "0x680ce5b4",
          "transactionHash": "0x9a144642c9b41f1e5f51a9e3ea228790d88a8b0fa28197c72637682667943a92",
          "transactionIndex": "0x6e",
          "logIndex": "0xb2",
          "removed": false
        }
      ],
      "logsBloom": "0x00000000000001000000000000000000000000000000000000000000000200000000000000000000000001000000000000000000000000000000000000200000000000000000000000000000000004000000000000000000000000000000000000000000000000000000000000000020000000000000000000000000000000000000000000100002000000000000000000000000000000000020000000000000020000000000000000000000000000000000000000000000000000000000000000000000000000000000000000000000000000000000000000000000000000000010000000000000000010000000000000000000000000000000000000000000",
      "type": "0x2",
      "transactionHash": "0x9a144642c9b41f1e5f51a9e3ea228790d88a8b0fa28197c72637682667943a92",
      "transactionIndex": "0x6e",
      "blockHash": "0x6bfafe9fdd9c44c32f5a548713772fabb32edc97c4c5526d0a4f49e330c62278",
      "blockNumber": "0x7d1e7e",
      "gasUsed": "0xd881",
      "effectiveGasPrice": "0x9a9884ae5",
      "from": "0x7111c16d9e779f4bc04e28e988ba81fb2204b7d0",
      "to": "0x1c7d4b196cb0c7b01d743fbc6116a902379c7238",
      "contractAddress": null
    },
    {
      "status": "0x1",
      "cumulativeGasUsed": "0xdc7de8",
      "logs": [
        {
          "address": "0x1c7d4b196cb0c7b01d743fbc6116a902379c7238",
          "topics": [
            "0xddf252ad1be2c89b69c2b068fc378daa952ba7f163c4a11628f55a4df523b3ef",
            "0x0000000000000000000000007111c16d9e779f4bc04e28e988ba81fb2204b7d0",
            "0x00000000000000000000000054ed3de39c8254f4d92c68c4b52ad8071089f418"
          ],
          "data": "0x000000000000000000000000000000000000000000000000000000000000c350",
          "blockHash": "0x6bfafe9fdd9c44c32f5a548713772fabb32edc97c4c5526d0a4f49e330c62278",
          "blockNumber": "0x7d1e7e",
          "blockTimestamp": "0x680ce5b4",
          "transactionHash": "0xc8d7cfb40ea1df06ce4e8bc00f5eea59ad5f25fa165d6bee588f39b9f52beb85",
          "transactionIndex": "0x6f",
          "logIndex": "0xb3",
          "removed": false
        },
        {
          "address": "0x5d14806127d7caafcb8028c7736ae6b8aec583d9",
          "topics": [
            "0xff619b01773078aaa421fae49c8eaa3cddf8151aab2b9c8ff18eff4b7f937a59"
          ],
          "data": "0x46c02b79c5190f2d3637cd9cb7e9e16bb35ec91e687b348926bcea73ea82f21825303d0e8ae305b0a2c2bc79956b6d47d258293d5d2cb50596174c2e90ce055b00000000000000000000000000000000000000000000000000000000680ce5b400000000000000000000000000000000000000000000000000000000000000800000000000000000000000007bc921c858c5390d9fd74c337dd009ec9a1b6b8f0000000000000000000000005d14806127d7caafcb8028c7736ae6b8aec583d90000000000000000000000000000000000000000000000000000000000aa36a70000000000000000000000001c7d4b196cb0c7b01d743fbc6116a902379c7238000000000000000000000000000000000000000000000000000000000000c35000000000000000000000000054ed3de39c8254f4d92c68c4b52ad8071089f4180000000000000000000000000000000000000000000000000000000000000100000000000000000000000000000000000000000000000000000000000000012000000000000000000000000000000000000000000000000000000000000000000000000000000000000000000000000000000000000000000000000000000000",
          "blockHash": "0x6bfafe9fdd9c44c32f5a548713772fabb32edc97c4c5526d0a4f49e330c62278",
          "blockNumber": "0x7d1e7e",
          "blockTimestamp": "0x680ce5b4",
          "transactionHash": "0xc8d7cfb40ea1df06ce4e8bc00f5eea59ad5f25fa165d6bee588f39b9f52beb85",
          "transactionIndex": "0x6f",
          "logIndex": "0xb4",
          "removed": false
        }
      ],
      "logsBloom": "0x00000000000001000000000000000000000000000000000000000000000200000000000000000000000000000000000000000000000000000000000000000000000200000000000000000008000004000000002000000000000000000000000000000200000000000000000000000000000000000000000000000010000000000100000000100002000000000000000000000040000000000000000000000000020000000000002000000000000000000000000000008000000000000000000000000002000000000000000000000000000000000000000000000000000000000000000000000000000010000000000000000000010000000000000000000000",
      "type": "0x2",
      "transactionHash": "0xc8d7cfb40ea1df06ce4e8bc00f5eea59ad5f25fa165d6bee588f39b9f52beb85",
      "transactionIndex": "0x6f",
      "blockHash": "0x6bfafe9fdd9c44c32f5a548713772fabb32edc97c4c5526d0a4f49e330c62278",
      "blockNumber": "0x7d1e7e",
      "gasUsed": "0x19b26",
      "effectiveGasPrice": "0x9a9884ae5",
      "from": "0x7111c16d9e779f4bc04e28e988ba81fb2204b7d0",
      "to": "0x5d14806127d7caafcb8028c7736ae6b8aec583d9",
      "contractAddress": null
    }
  ],
  "libraries": [],
  "pending": [],
  "returns": {},
  "timestamp": 1745675702,
  "chain": 11155111,
  "commit": "417ffd2"
}