{
  "transactions": [
    {
      "hash": "0x3c8855b2b69a759f91ae561f7af2132aac04b5b3e3eaa451e14d17933ec17a1a",
      "transactionType": "CALL",
      "contractName": null,
      "contractAddress": "0x5d14806127d7caafcb8028c7736ae6b8aec583d9",
      "function": "fill(bytes32,(bytes32,bytes32,uint256,bytes32,uint256,bytes32,bytes,bytes),bytes32)",
      "arguments": [
        "0x992a5ee6cc9168becf1f7c5a4d7ae061846f1f2e292f06f95ab4436afa0ac449",
        "(0x0000000000000000000000007bc921c858c5390d9fd74c337dd009ec9a1b6b8f, 0x0000000000000000000000005d14806127d7caafcb8028c7736ae6b8aec583d9, 11155111, 0x0000000000000000000000001c7d4b196cb0c7b01d743fbc6116a902379c7238, 50000, 0x00000000000000000000000054ed3de39c8254f4d92c68c4b52ad8071089f418, 0x, 0x)",
        "0x0000000000000000000000007111c16d9e779f4bc04e28e988ba81fb2204b7d0"
      ],
      "transaction": {
        "from": "0x7111c16d9e779f4bc04e28e988ba81fb2204b7d0",
        "to": "0x5d14806127d7caafcb8028c7736ae6b8aec583d9",
        "gas": "0x2371e",
        "value": "0x0",
        "input": "0x991421f3992a5ee6cc9168becf1f7c5a4d7ae061846f1f2e292f06f95ab4436afa0ac44900000000000000000000000000000000000000000000000000000000000000600000000000000000000000007111c16d9e779f4bc04e28e988ba81fb2204b7d00000000000000000000000007bc921c858c5390d9fd74c337dd009ec9a1b6b8f0000000000000000000000005d14806127d7caafcb8028c7736ae6b8aec583d90000000000000000000000000000000000000000000000000000000000aa36a70000000000000000000000001c7d4b196cb0c7b01d743fbc6116a902379c7238000000000000000000000000000000000000000000000000000000000000c35000000000000000000000000054ed3de39c8254f4d92c68c4b52ad8071089f4180000000000000000000000000000000000000000000000000000000000000100000000000000000000000000000000000000000000000000000000000000012000000000000000000000000000000000000000000000000000000000000000000000000000000000000000000000000000000000000000000000000000000000",
        "nonce": "0x1c",
        "chainId": "0xaa36a7"
      },
      "additionalContracts": [],
      "isFixedGasLimit": false
    }
  ],
  "receipts": [
    {
      "status": "0x1",
      "cumulativeGasUsed": "0xc58302",
      "logs": [
        {
          "address": "0x1c7d4b196cb0c7b01d743fbc6116a902379c7238",
          "topics": [
            "0xddf252ad1be2c89b69c2b068fc378daa952ba7f163c4a11628f55a4df523b3ef",
            "0x0000000000000000000000007111c16d9e779f4bc04e28e988ba81fb2204b7d0",
            "0x00000000000000000000000054ed3de39c8254f4d92c68c4b52ad8071089f418"
          ],
          "data": "0x000000000000000000000000000000000000000000000000000000000000c350",
          "blockHash": "0x90a04775639a19f4a8c7e843a4b1f562c4d0f8fceecde35ee1359140b920ca12",
          "blockNumber": "0x7cae8c",
          "blockTimestamp": "0x68074f2c",
          "transactionHash": "0x3c8855b2b69a759f91ae561f7af2132aac04b5b3e3eaa451e14d17933ec17a1a",
          "transactionIndex": "0x76",
          "logIndex": "0xdd",
          "removed": false
        },
        {
          "address": "0x5d14806127d7caafcb8028c7736ae6b8aec583d9",
          "topics": [
            "0xff619b01773078aaa421fae49c8eaa3cddf8151aab2b9c8ff18eff4b7f937a59"
          ],
          "data": "0x992a5ee6cc9168becf1f7c5a4d7ae061846f1f2e292f06f95ab4436afa0ac4490000000000000000000000007111c16d9e779f4bc04e28e988ba81fb2204b7d00000000000000000000000000000000000000000000000000000000068074f2c00000000000000000000000000000000000000000000000000000000000000800000000000000000000000007bc921c858c5390d9fd74c337dd009ec9a1b6b8f0000000000000000000000005d14806127d7caafcb8028c7736ae6b8aec583d90000000000000000000000000000000000000000000000000000000000aa36a70000000000000000000000001c7d4b196cb0c7b01d743fbc6116a902379c7238000000000000000000000000000000000000000000000000000000000000c35000000000000000000000000054ed3de39c8254f4d92c68c4b52ad8071089f4180000000000000000000000000000000000000000000000000000000000000100000000000000000000000000000000000000000000000000000000000000012000000000000000000000000000000000000000000000000000000000000000000000000000000000000000000000000000000000000000000000000000000000",
          "blockHash": "0x90a04775639a19f4a8c7e843a4b1f562c4d0f8fceecde35ee1359140b920ca12",
          "blockNumber": "0x7cae8c",
          "blockTimestamp": "0x68074f2c",
          "transactionHash": "0x3c8855b2b69a759f91ae561f7af2132aac04b5b3e3eaa451e14d17933ec17a1a",
          "transactionIndex": "0x76",
          "logIndex": "0xde",
          "removed": false
        }
      ],
      "logsBloom": "0x00000000000001000000000000000000000000000000000000000000000200000000000000000000000000000000000000000000000000000000000000000000000200000000000000000008000004000000002000000000000000000000000000000200000000000000000000000000000000000000000000000010000000000100000000100002000000000000000000000040000000000000000000000000020000000000002000000000000000000000000000008000000000000000000000000002000000000000000000000000000000000000000000000000000000000000000000000000000010000000000000000000010000000000000000000000",
      "type": "0x2",
      "transactionHash": "0x3c8855b2b69a759f91ae561f7af2132aac04b5b3e3eaa451e14d17933ec17a1a",
      "transactionIndex": "0x76",
      "blockHash": "0x90a04775639a19f4a8c7e843a4b1f562c4d0f8fceecde35ee1359140b920ca12",
      "blockNumber": "0x7cae8c",
      "gasUsed": "0x19a96",
      "effectiveGasPrice": "0x702215149",
      "from": "0x7111c16d9e779f4bc04e28e988ba81fb2204b7d0",
      "to": "0x5d14806127d7caafcb8028c7736ae6b8aec583d9",
      "contractAddress": null
    }
  ],
  "libraries": [],
  "pending": [],
  "returns": {},
  "timestamp": 1745309485,
  "chain": 11155111,
  "commit": "417ffd2"
}