{
  "transactions": [
    {
      "hash": "0x1125b4decd024201bafef7aafe2b8a7a603bcf863fdb06f03828ceaed824f0fe",
      "transactionType": "CALL",
      "contractName": null,
      "contractAddress": "0x7bc921c858c5390d9fd74c337dd009ec9a1b6b8f",
      "function": "submit(address,bytes[])",
      "arguments": [
        "0x5D14806127d7CaAFcB8028C7736AE6B8AEC583d9",
        "[0x25303d0e8ae305b0a2c2bc79956b6d47d258293d5d2cb50596174c2e90ce055b46c02b79c5190f2d3637cd9cb7e9e16bb35ec91e687b348926bcea73ea82f218680ce5b40000000000000000000000001c7d4b196cb0c7b01d743fbc6116a902379c7238000000000000000000000000000000000000000000000000000000000000c35000000000000000000000000054ed3de39c8254f4d92c68c4b52ad8071089f41800000000]"
      ],
      "transaction": {
        "from": "0x7111c16d9e779f4bc04e28e988ba81fb2204b7d0",
        "to": "0x7bc921c858c5390d9fd74c337dd009ec9a1b6b8f",
        "gas": "0x135a6",
        "value": "0x0",
        "input": "0x87d64b920000000000000000000000005d14806127d7caafcb8028c7736ae6b8aec583d900000000000000000000000000000000000000000000000000000000000000400000000000000000000000000000000000000000000000000000000000000001000000000000000000000000000000000000000000000000000000000000002000000000000000000000000000000000000000000000000000000000000000a825303d0e8ae305b0a2c2bc79956b6d47d258293d5d2cb50596174c2e90ce055b46c02b79c5190f2d3637cd9cb7e9e16bb35ec91e687b348926bcea73ea82f218680ce5b40000000000000000000000001c7d4b196cb0c7b01d743fbc6116a902379c7238000000000000000000000000000000000000000000000000000000000000c35000000000000000000000000054ed3de39c8254f4d92c68c4b52ad8071089f41800000000000000000000000000000000000000000000000000000000",
        "nonce": "0x2f",
        "chainId": "0xaa36a7"
      },
      "additionalContracts": [],
      "isFixedGasLimit": false
    }
  ],
  "receipts": [],
  "libraries": [],
  "pending": [
    "0x1125b4decd024201bafef7aafe2b8a7a603bcf863fdb06f03828ceaed824f0fe"
  ],
  "returns": {},
  "timestamp": 1745675838,
  "chain": 11155111,
  "commit": "417ffd2"
}