{
  "transactions": [
    {
      "hash": "0xb45479e67d0a98cd66a77460e6623c81f5cdeef0f60e7d6d1ff0011833894921",
      "transactionType": "CALL",
      "contractName": null,
      "contractAddress": "0x7bc921c858c5390d9fd74c337dd009ec9a1b6b8f",
      "function": "submit(address,bytes[])",
      "arguments": [
        "0x5D14806127d7CaAFcB8028C7736AE6B8AEC583d9",
        "[0x0000000000000000000000007111c16d9e779f4bc04e28e988ba81fb2204b7d03d64fba4f513ef7ac4873b650704813b423b93f2efc878ab2d7993b3b846776668063f940000000000000000000000001c7d4b196cb0c7b01d743fbc6116a902379c7238000000000000000000000000000000000000000000000000000000000007a12000000000000000000000000054ed3de39c8254f4d92c68c4b52ad8071089f41800000000]"
      ],
      "transaction": {
        "from": "0x7111c16d9e779f4bc04e28e988ba81fb2204b7d0",
        "to": "0x7bc921c858c5390d9fd74c337dd009ec9a1b6b8f",
        "gas": "0x1471c",
        "value": "0x0",
        "input": "0x87d64b920000000000000000000000005d14806127d7caafcb8028c7736ae6b8aec583d900000000000000000000000000000000000000000000000000000000000000400000000000000000000000000000000000000000000000000000000000000001000000000000000000000000000000000000000000000000000000000000002000000000000000000000000000000000000000000000000000000000000000a80000000000000000000000007111c16d9e779f4bc04e28e988ba81fb2204b7d03d64fba4f513ef7ac4873b650704813b423b93f2efc878ab2d7993b3b846776668063f940000000000000000000000001c7d4b196cb0c7b01d743fbc6116a902379c7238000000000000000000000000000000000000000000000000000000000007a12000000000000000000000000054ed3de39c8254f4d92c68c4b52ad8071089f41800000000000000000000000000000000000000000000000000000000",
        "nonce": "0x15",
        "chainId": "0xaa36a7"
      },
      "additionalContracts": [],
      "isFixedGasLimit": false
    }
  ],
  "receipts": [
    {
      "status": "0x1",
      "cumulativeGasUsed": "0x9a8e92",
      "logs": [
        {
          "address": "0x4a8bc80ed5a4067f1ccf107057b8270e0cc11a78",
          "topics": [
            "0x6eb224fb001ed210e379b335e35efe88672a8ce935d981a6896b27ffdf52a3b2",
            "0x0000000000000000000000007bc921c858c5390d9fd74c337dd009ec9a1b6b8f"
          ],
          "data": "0x000000000000000000000000000000000000000000000000000000000000000d00000000000000000000000000000000000000000000000000000000000000000000000000000000000000000000000000000000000000000000000000000080000000000000000000000000000000000000000000000000000000000000000f00000000000000000000000000000000000000000000000000000000000000cc0000000000000000000000005d14806127d7caafcb8028c7736ae6b8aec583d9000100a80000000000000000000000007111c16d9e779f4bc04e28e988ba81fb2204b7d03d64fba4f513ef7ac4873b650704813b423b93f2efc878ab2d7993b3b846776668063f940000000000000000000000001c7d4b196cb0c7b01d743fbc6116a902379c7238000000000000000000000000000000000000000000000000000000000007a12000000000000000000000000054ed3de39c8254f4d92c68c4b52ad8071089f418000000000000000000000000000000000000000000000000",
          "blockHash": "0x7e97c71d0523f968efd6f73d33f2356404f8bb9023a316ee26f88734c9158b8b",
          "blockNumber": "0x7c9904",
          "blockTimestamp": "0x68063fe8",
          "transactionHash": "0xb45479e67d0a98cd66a77460e6623c81f5cdeef0f60e7d6d1ff0011833894921",
          "transactionIndex": "0x7e",
          "logIndex": "0x8f",
          "removed": false
        }
      ],
      "logsBloom": "0x00000000000100000000000000000010000000000000000000000000000000000010000000000000000000000000000000000000000000000000000000000000000000000000000000000000000000000000000008000000000000000100000000000000000000000000000000000000000000000000000000000000000000000000000000000000000000000000200000000000000000000000100000000000000000000400000000000000000000000000000000000000000000000000000000000000000000000000000000000000000000000000000000000000040000000000000000000000000000000000000000000000000000000000000000000000",
      "type": "0x2",
      "transactionHash": "0xb45479e67d0a98cd66a77460e6623c81f5cdeef0f60e7d6d1ff0011833894921",
      "transactionIndex": "0x7e",
      "blockHash": "0x7e97c71d0523f968efd6f73d33f2356404f8bb9023a316ee26f88734c9158b8b",
      "blockNumber": "0x7c9904",
      "gasUsed": "0xdfab",
      "effectiveGasPrice": "0x1a49827b9",
      "from": "0x7111c16d9e779f4bc04e28e988ba81fb2204b7d0",
      "to": "0x7bc921c858c5390d9fd74c337dd009ec9a1b6b8f",
      "contractAddress": null
    }
  ],
  "libraries": [],
  "pending": [],
  "returns": {},
  "timestamp": 1745240041,
  "chain": 11155111,
  "commit": "417ffd2"
}