{
  "transactions": [
    {
      "hash": "0x405dee80320dd86018815a17b84ceaffb704ba6725153cf30e4fec615cd25eaa",
      "transactionType": "CALL",
      "contractName": null,
      "contractAddress": "0x7bc921c858c5390d9fd74c337dd009ec9a1b6b8f",
      "function": "submit(address,bytes[])",
      "arguments": [
        "0x5D14806127d7CaAFcB8028C7736AE6B8AEC583d9",
        "[0x0000000000000000000000007111c16d9e779f4bc04e28e988ba81fb2204b7d0acee66a1c7b5a5214a674a44f0214bd64999188ef9607e8b50b3ddd70a2de1966807af740000000000000000000000001c7d4b196cb0c7b01d743fbc6116a902379c7238000000000000000000000000000000000000000000000000000000000000c35000000000000000000000000054ed3de39c8254f4d92c68c4b52ad8071089f41800000000]"
      ],
      "transaction": {
        "from": "0x7111c16d9e779f4bc04e28e988ba81fb2204b7d0",
        "to": "0x7bc921c858c5390d9fd74c337dd009ec9a1b6b8f",
        "gas": "0x134df",
        "value": "0x0",
        "input": "0x87d64b920000000000000000000000005d14806127d7caafcb8028c7736ae6b8aec583d900000000000000000000000000000000000000000000000000000000000000400000000000000000000000000000000000000000000000000000000000000001000000000000000000000000000000000000000000000000000000000000002000000000000000000000000000000000000000000000000000000000000000a80000000000000000000000007111c16d9e779f4bc04e28e988ba81fb2204b7d0acee66a1c7b5a5214a674a44f0214bd64999188ef9607e8b50b3ddd70a2de1966807af740000000000000000000000001c7d4b196cb0c7b01d743fbc6116a902379c7238000000000000000000000000000000000000000000000000000000000000c35000000000000000000000000054ed3de39c8254f4d92c68c4b52ad8071089f41800000000000000000000000000000000000000000000000000000000",
        "nonce": "0x23",
        "chainId": "0xaa36a7"
      },
      "additionalContracts": [],
      "isFixedGasLimit": false
    }
  ],
  "receipts": [
    {
      "status": "0x1",
      "cumulativeGasUsed": "0x121c5fc",
      "logs": [
        {
          "address": "0x4a8bc80ed5a4067f1ccf107057b8270e0cc11a78",
          "topics": [
            "0x6eb224fb001ed210e379b335e35efe88672a8ce935d981a6896b27ffdf52a3b2",
            "0x0000000000000000000000007bc921c858c5390d9fd74c337dd009ec9a1b6b8f"
          ],
          "data": "0x000000000000000000000000000000000000000000000000000000000000001100000000000000000000000000000000000000000000000000000000000000000000000000000000000000000000000000000000000000000000000000000080000000000000000000000000000000000000000000000000000000000000000f00000000000000000000000000000000000000000000000000000000000000cc0000000000000000000000005d14806127d7caafcb8028c7736ae6b8aec583d9000100a80000000000000000000000007111c16d9e779f4bc04e28e988ba81fb2204b7d0acee66a1c7b5a5214a674a44f0214bd64999188ef9607e8b50b3ddd70a2de1966807af740000000000000000000000001c7d4b196cb0c7b01d743fbc6116a902379c7238000000000000000000000000000000000000000000000000000000000000c35000000000000000000000000054ed3de39c8254f4d92c68c4b52ad8071089f418000000000000000000000000000000000000000000000000",
          "blockHash": "0xf9a1aff995fe61e13d806efd2faa2a29bf49cc99fe7b7d5c11e3afea80afeffb",
          "blockNumber": "0x7cb62a",
          "blockTimestamp": "0x6807afbc",
          "transactionHash": "0x405dee80320dd86018815a17b84ceaffb704ba6725153cf30e4fec615cd25eaa",
          "transactionIndex": "0x83",
          "logIndex": "0xf6",
          "removed": false
        }
      ],
      "logsBloom": "0x00000000000100000000000000000010000000000000000000000000000000000010000000000000000000000000000000000000000000000000000000000000000000000000000000000000000000000000000008000000000000000100000000000000000000000000000000000000000000000000000000000000000000000000000000000000000000000000200000000000000000000000100000000000000000000400000000000000000000000000000000000000000000000000000000000000000000000000000000000000000000000000000000000000040000000000000000000000000000000000000000000000000000000000000000000000",
      "type": "0x2",
      "transactionHash": "0x405dee80320dd86018815a17b84ceaffb704ba6725153cf30e4fec615cd25eaa",
      "transactionIndex": "0x83",
      "blockHash": "0xf9a1aff995fe61e13d806efd2faa2a29bf49cc99fe7b7d5c11e3afea80afeffb",
      "blockNumber": "0x7cb62a",
      "gasUsed": "0xdf9f",
      "effectiveGasPrice": "0x4c8839f0b",
      "from": "0x7111c16d9e779f4bc04e28e988ba81fb2204b7d0",
      "to": "0x7bc921c858c5390d9fd74c337dd009ec9a1b6b8f",
      "contractAddress": null
    }
  ],
  "libraries": [],
  "pending": [],
  "returns": {},
  "timestamp": 1745334205,
  "chain": 11155111,
  "commit": "417ffd2"
}